{
  "transactions": [
    {
      "hash": "0x0e1940310f798b05368d1dd5516274b3610ce56f9b9245a1b3ede7eb7b74bfc3",
      "transactionType": "CREATE",
      "contractName": "BatchCaller",
      "contractAddress": "0xa33916c552e5c2c0c7eec006541994f0c320b196",
      "function": null,
      "arguments": null,
      "transaction": {
        "from": "0x23689aec7dfd6b6f707dbf74b5581d84e8f3c813",
        "gas": "0x47925",
        "value": "0x0",
        "input": "0x6080604052348015600e575f5ffd5b5061030b8061001c5f395ff3fe608060405260043610610020575f3560e01c8063baae8abf1461002b575f5ffd5b3661002757005b5f5ffd5b348015610036575f5ffd5b5061004a610045366004610170565b61004c565b005b33301461006c5760405163913e98f160e01b815260040160405180910390fd5b5f5b8181101561016b575f5f84848481811061008a5761008a6101e1565b905060200281019061009c91906101f5565b6100aa906020810190610213565b6001600160a01b03168585858181106100c5576100c56101e1565b90506020028101906100d791906101f5565b6100e5906020810190610240565b6040516100f392919061028a565b5f604051808303815f865af19150503d805f811461012c576040519150601f19603f3d011682016040523d82523d5f602084013e610131565b606091505b509150915081610161578281604051635c0dee5d60e01b8152600401610158929190610299565b60405180910390fd5b505060010161006e565b505050565b5f5f60208385031215610181575f5ffd5b823567ffffffffffffffff811115610197575f5ffd5b8301601f810185136101a7575f5ffd5b803567ffffffffffffffff8111156101bd575f5ffd5b8560208260051b84010111156101d1575f5ffd5b6020919091019590945092505050565b634e487b7160e01b5f52603260045260245ffd5b5f8235603e19833603018112610209575f5ffd5b9190910192915050565b5f60208284031215610223575f5ffd5b81356001600160a01b0381168114610239575f5ffd5b9392505050565b5f5f8335601e19843603018112610255575f5ffd5b83018035915067ffffffffffffffff82111561026f575f5ffd5b602001915036819003821315610283575f5ffd5b9250929050565b818382375f9101908152919050565b828152604060208201525f82518060408401528060208501606085015e5f606082850101526060601f19601f830116840101915050939250505056fea2646970667358221220d08fa973ca6564e3d2ba5c7c470435891d689cb203ad4441b7eb572d5d22971664736f6c63430008210033",
        "nonce": "0x49",
        "chainId": "0xa4b1"
      },
      "additionalContracts": [],
      "isFixedGasLimit": false
    },
    {
      "hash": "0x47980e5cff7474f6b3825ca1abf874643f7587ef5a985df5b6e074b6f42a4e9e",
      "transactionType": "CALL",
      "contractName": "StdConfig",
      "contractAddress": "0x5aadfb43ef8daf45dd80f4676345b7676f1d70e3",
      "function": "set(uint256,string,address)",
      "arguments": [
        "42161",
        "BatchCaller",
        "0xA33916c552e5C2c0c7eeC006541994F0c320b196"
      ],
      "transaction": {
        "from": "0x23689aec7dfd6b6f707dbf74b5581d84e8f3c813",
        "to": "0x5aadfb43ef8daf45dd80f4676345b7676f1d70e3",
        "gas": "0x73b1",
        "value": "0x0",
        "input": "0x5eba0df0000000000000000000000000000000000000000000000000000000000000a4b10000000000000000000000000000000000000000000000000000000000000060000000000000000000000000a33916c552e5c2c0c7eec006541994f0c320b196000000000000000000000000000000000000000000000000000000000000000b426174636843616c6c6572000000000000000000000000000000000000000000",
        "nonce": "0x4a",
        "chainId": "0xa4b1"
      },
      "additionalContracts": [],
      "isFixedGasLimit": false
    }
  ],
  "receipts": [
    {
      "status": "0x1",
      "cumulativeGasUsed": "0xe76ba",
      "logs": [],
      "logsBloom": "0x00000000000000000000000000000000000000000000000000000000000000000000000000000000000000000000000000000000000000000000000000000000000000000000000000000000000000000000000000000000000000000000000000000000000000000000000000000000000000000000000000000000000000000000000000000000000000000000000000000000000000000000000000000000000000000000000000000000000000000000000000000000000000000000000000000000000000000000000000000000000000000000000000000000000000000000000000000000000000000000000000000000000000000000000000000000",
      "type": "0x2",
      "transactionHash": "0x0e1940310f798b05368d1dd5516274b3610ce56f9b9245a1b3ede7eb7b74bfc3",
      "transactionIndex": "0x9",
      "blockHash": "0xd06cd53cde759424a4ae36113c2d36f413b3322b6a99b4bcffc86fbfc7e8bb85",
      "blockNumber": "0x1a110606",
      "gasUsed": "0x36500",
      "effectiveGasPrice": "0x1313ca0",
      "from": "0x23689aec7dfd6b6f707dbf74b5581d84e8f3c813",
      "to": null,
      "contractAddress": "0xa33916c552e5c2c0c7eec006541994f0c320b196",
      "gasUsedForL1": "0x308",
      "l1BlockNumber": "0x176d533",
      "timeboosted": false
    },
    {
      "status": "0x1",
      "cumulativeGasUsed": "0x22753",
      "logs": [],
      "logsBloom": "0x00000000000000000000000000000000000000000000000000000000000000000000000000000000000000000000000000000000000000000000000000000000000000000000000000000000000000000000000000000000000000000000000000000000000000000000000000000000000000000000000000000000000000000000000000000000000000000000000000000000000000000000000000000000000000000000000000000000000000000000000000000000000000000000000000000000000000000000000000000000000000000000000000000000000000000000000000000000000000000000000000000000000000000000000000000000",
      "type": "0x2",
      "transactionHash": "0x47980e5cff7474f6b3825ca1abf874643f7587ef5a985df5b6e074b6f42a4e9e",
      "transactionIndex": "0x4",
      "blockHash": "0xf157a9eaddf5f38ea66c799adfdbf819b3ba52a20f11581d8c827adace8efc80",
      "blockNumber": "0x1a110612",
      "gasUsed": "0x5775",
      "effectiveGasPrice": "0x1312d00",
      "from": "0x23689aec7dfd6b6f707dbf74b5581d84e8f3c813",
      "to": "0x5aadfb43ef8daf45dd80f4676345b7676f1d70e3",
      "contractAddress": null,
      "gasUsedForL1": "0x109",
      "l1BlockNumber": "0x176d533",
      "timeboosted": false
    }
  ],
  "libraries": [],
  "pending": [],
  "returns": {},
  "timestamp": 1772397629126,
  "chain": 42161,
  "commit": "f36faea"
}